{
  "_format": "hh-sol-artifact-1",
  "contractName": "Deals",
  "sourceName": "contracts/Deals.sol",
  "abi": [
    {
      "anonymous": false,
      "inputs": [
        {
          "indexed": false,
          "internalType": "address",
          "name": "from",
          "type": "address"
        },
        {
          "indexed": false,
          "internalType": "uint256",
          "name": "timestamp",
          "type": "uint256"
        },
        {
          "indexed": false,
          "internalType": "uint256",
          "name": "price",
          "type": "uint256"
        },
        {
          "indexed": false,
          "internalType": "string",
          "name": "email",
          "type": "string"
        },
        {
          "indexed": false,
          "internalType": "string",
          "name": "description",
          "type": "string"
        },
        {
          "indexed": false,
          "internalType": "string",
          "name": "imageUrl",
          "type": "string"
        }
      ],
      "name": "DealEvent",
      "type": "event"
    },
    {
      "inputs": [
        {
          "internalType": "uint256",
          "name": "price",
          "type": "uint256"
        },
        {
          "internalType": "string",
          "name": "email",
          "type": "string"
        },
        {
          "internalType": "string",
          "name": "description",
          "type": "string"
        },
        {
          "internalType": "string",
          "name": "imageUrl",
          "type": "string"
        }
      ],
      "name": "addDeal",
      "outputs": [],
      "stateMutability": "nonpayable",
      "type": "function"
    },
    {
      "inputs": [],
      "name": "getDeals",
      "outputs": [
        {
          "components": [
            {
              "internalType": "address",
              "name": "from",
              "type": "address"
            },
            {
              "internalType": "uint256",
              "name": "timestamp",
              "type": "uint256"
            },
            {
              "internalType": "uint256",
              "name": "price",
              "type": "uint256"
            },
            {
              "internalType": "string",
              "name": "email",
              "type": "string"
            },
            {
              "internalType": "string",
              "name": "description",
              "type": "string"
            },
            {
              "internalType": "string",
              "name": "imageUrl",
              "type": "string"
            }
          ],
          "internalType": "struct Deals.DealStruct[]",
          "name": "",
          "type": "tuple[]"
        }
      ],
      "stateMutability": "view",
      "type": "function"
    },
    {
      "inputs": [],
      "name": "getNumDeals",
      "outputs": [
        {
          "internalType": "uint256",
          "name": "",
          "type": "uint256"
        }
      ],
      "stateMutability": "view",
      "type": "function"
    }
  ],
  "bytecode": "0x60806040526000805534801561001457600080fd5b50610b9d806100246000396000f3fe608060405234801561001057600080fd5b50600436106100415760003560e01c80635a5539de14610046578063a55fc16514610064578063d9123f1214610082575b600080fd5b61004e61009e565b60405161005b91906108b5565b60405180910390f35b61006c61031d565b60405161007991906108d7565b60405180910390f35b61009c600480360381019061009791906105c6565b610326565b005b60606001805480602002602001604051908101604052809291908181526020016000905b8282101561031457838290600052602060002090600602016040518060c00160405290816000820160009054906101000a900473ffffffffffffffffffffffffffffffffffffffff1673ffffffffffffffffffffffffffffffffffffffff1673ffffffffffffffffffffffffffffffffffffffff168152602001600182015481526020016002820154815260200160038201805461015f90610a37565b80601f016020809104026020016040519081016040528092919081815260200182805461018b90610a37565b80156101d85780601f106101ad576101008083540402835291602001916101d8565b820191906000526020600020905b8154815290600101906020018083116101bb57829003601f168201915b505050505081526020016004820180546101f190610a37565b80601f016020809104026020016040519081016040528092919081815260200182805461021d90610a37565b801561026a5780601f1061023f5761010080835404028352916020019161026a565b820191906000526020600020905b81548152906001019060200180831161024d57829003601f168201915b5050505050815260200160058201805461028390610a37565b80601f01602080910402602001604051908101604052809291908181526020018280546102af90610a37565b80156102fc5780601f106102d1576101008083540402835291602001916102fc565b820191906000526020600020905b8154815290600101906020018083116102df57829003601f168201915b505050505081525050815260200190600101906100c2565b50505050905090565b60008054905090565b60016040518060c001604052803373ffffffffffffffffffffffffffffffffffffffff16815260200142815260200186815260200185815260200184815260200183815250908060018154018082558091505060019003906000526020600020906006020160009091909190915060008201518160000160006101000a81548173ffffffffffffffffffffffffffffffffffffffff021916908373ffffffffffffffffffffffffffffffffffffffff1602179055506020820151816001015560408201518160020155606082015181600301908051906020019061040b9291906104a6565b5060808201518160040190805190602001906104289291906104a6565b5060a08201518160050190805190602001906104459291906104a6565b50505060008081548092919061045a90610a69565b91905055507fbcd096dd86ae7be1cc22e74e976b094b854aadd740428724bace3ab66c2c5c523342868686866040516104989695949392919061083f565b60405180910390a150505050565b8280546104b290610a37565b90600052602060002090601f0160209004810192826104d4576000855561051b565b82601f106104ed57805160ff191683800117855561051b565b8280016001018555821561051b579182015b8281111561051a5782518255916020019190600101906104ff565b5b509050610528919061052c565b5090565b5b8082111561054557600081600090555060010161052d565b5090565b600061055c61055784610923565b6108f2565b90508281526020810184848401111561057457600080fd5b61057f8482856109f5565b509392505050565b600082601f83011261059857600080fd5b81356105a8848260208601610549565b91505092915050565b6000813590506105c081610b50565b92915050565b600080600080608085870312156105dc57600080fd5b60006105ea878288016105b1565b945050602085013567ffffffffffffffff81111561060757600080fd5b61061387828801610587565b935050604085013567ffffffffffffffff81111561063057600080fd5b61063c87828801610587565b925050606085013567ffffffffffffffff81111561065957600080fd5b61066587828801610587565b91505092959194509250565b600061067d838361078a565b905092915050565b61068e816109b9565b82525050565b61069d816109b9565b82525050565b60006106ae82610963565b6106b88185610986565b9350836020820285016106ca85610953565b8060005b8581101561070657848403895281516106e78582610671565b94506106f283610979565b925060208a019950506001810190506106ce565b50829750879550505050505092915050565b60006107238261096e565b61072d8185610997565b935061073d818560208601610a04565b61074681610b3f565b840191505092915050565b600061075c8261096e565b61076681856109a8565b9350610776818560208601610a04565b61077f81610b3f565b840191505092915050565b600060c0830160008301516107a26000860182610685565b5060208301516107b56020860182610821565b5060408301516107c86040860182610821565b50606083015184820360608601526107e08282610718565b915050608083015184820360808601526107fa8282610718565b91505060a083015184820360a08601526108148282610718565b9150508091505092915050565b61082a816109eb565b82525050565b610839816109eb565b82525050565b600060c0820190506108546000830189610694565b6108616020830188610830565b61086e6040830187610830565b81810360608301526108808186610751565b905081810360808301526108948185610751565b905081810360a08301526108a88184610751565b9050979650505050505050565b600060208201905081810360008301526108cf81846106a3565b905092915050565b60006020820190506108ec6000830184610830565b92915050565b6000604051905081810181811067ffffffffffffffff8211171561091957610918610b10565b5b8060405250919050565b600067ffffffffffffffff82111561093e5761093d610b10565b5b601f19601f8301169050602081019050919050565b6000819050602082019050919050565b600081519050919050565b600081519050919050565b6000602082019050919050565b600082825260208201905092915050565b600082825260208201905092915050565b600082825260208201905092915050565b60006109c4826109cb565b9050919050565b600073ffffffffffffffffffffffffffffffffffffffff82169050919050565b6000819050919050565b82818337600083830152505050565b60005b83811015610a22578082015181840152602081019050610a07565b83811115610a31576000848401525b50505050565b60006002820490506001821680610a4f57607f821691505b60208210811415610a6357610a62610ae1565b5b50919050565b6000610a74826109eb565b91507fffffffffffffffffffffffffffffffffffffffffffffffffffffffffffffffff821415610aa757610aa6610ab2565b5b600182019050919050565b7f4e487b7100000000000000000000000000000000000000000000000000000000600052601160045260246000fd5b7f4e487b7100000000000000000000000000000000000000000000000000000000600052602260045260246000fd5b7f4e487b7100000000000000000000000000000000000000000000000000000000600052604160045260246000fd5b6000601f19601f8301169050919050565b610b59816109eb565b8114610b6457600080fd5b5056fea264697066735822122086e354b0a25fe1a3dfc8eeb518413a80e984ed5d15d56fe4ce963637b2fd44cd64736f6c63430008000033",
  "linkReferences": {},
  "deployedLinkReferences": {}
}