{
  "_format": "hh-sol-artifact-1",
  "contractName": "Deals",
  "sourceName": "contracts/Deals.sol",
  "abi": [
    {
      "inputs": [
        {
          "internalType": "uint256",
          "name": "",
          "type": "uint256"
        }
      ],
      "name": "dealIds",
      "outputs": [
        {
          "internalType": "uint256",
          "name": "",
          "type": "uint256"
        }
      ],
      "stateMutability": "view",
      "type": "function"
    },
    {
      "inputs": [],
      "name": "getDealIds",
      "outputs": [
        {
          "internalType": "uint256[]",
          "name": "",
          "type": "uint256[]"
        }
      ],
      "stateMutability": "view",
      "type": "function"
    },
    {
      "inputs": [],
      "name": "getDeals",
      "outputs": [
        {
          "components": [
            {
              "internalType": "address",
              "name": "from",
              "type": "address"
            },
            {
              "internalType": "uint256",
              "name": "timestamp",
              "type": "uint256"
            },
            {
              "internalType": "uint256",
              "name": "id",
              "type": "uint256"
            },
            {
              "internalType": "uint256",
              "name": "price",
              "type": "uint256"
            },
            {
              "internalType": "string",
              "name": "email",
              "type": "string"
            },
            {
              "internalType": "string",
              "name": "item",
              "type": "string"
            },
            {
              "internalType": "string",
              "name": "description",
              "type": "string"
            },
            {
              "internalType": "string",
              "name": "imageUrl",
              "type": "string"
            }
          ],
          "internalType": "struct Deals.DealStruct[]",
          "name": "",
          "type": "tuple[]"
        }
      ],
      "stateMutability": "view",
      "type": "function"
    },
    {
      "inputs": [],
      "name": "getNumDeals",
      "outputs": [
        {
          "internalType": "uint256",
          "name": "",
          "type": "uint256"
        }
      ],
      "stateMutability": "view",
      "type": "function"
    },
    {
      "inputs": [
        {
          "internalType": "uint256",
          "name": "price",
          "type": "uint256"
        },
        {
          "internalType": "string",
          "name": "email",
          "type": "string"
        },
        {
          "internalType": "string",
          "name": "item",
          "type": "string"
        },
        {
          "internalType": "string",
          "name": "description",
          "type": "string"
        },
        {
          "internalType": "string",
          "name": "imageUrl",
          "type": "string"
        }
      ],
      "name": "postDeal",
      "outputs": [],
      "stateMutability": "nonpayable",
      "type": "function"
    },
    {
      "inputs": [
        {
          "internalType": "uint256",
          "name": "id",
          "type": "uint256"
        }
      ],
      "name": "removeDeal",
      "outputs": [],
      "stateMutability": "nonpayable",
      "type": "function"
    },
    {
      "inputs": [
        {
          "internalType": "uint256",
          "name": "",
          "type": "uint256"
        }
      ],
      "name": "unboughtDeals",
      "outputs": [
        {
          "internalType": "address",
          "name": "from",
          "type": "address"
        },
        {
          "internalType": "uint256",
          "name": "timestamp",
          "type": "uint256"
        },
        {
          "internalType": "uint256",
          "name": "id",
          "type": "uint256"
        },
        {
          "internalType": "uint256",
          "name": "price",
          "type": "uint256"
        },
        {
          "internalType": "string",
          "name": "email",
          "type": "string"
        },
        {
          "internalType": "string",
          "name": "item",
          "type": "string"
        },
        {
          "internalType": "string",
          "name": "description",
          "type": "string"
        },
        {
          "internalType": "string",
          "name": "imageUrl",
          "type": "string"
        }
      ],
      "stateMutability": "view",
      "type": "function"
    }
  ],
  "bytecode": "0x60806040526000805534801561001457600080fd5b506115c4806100246000396000f3fe608060405234801561001057600080fd5b506004361061007d5760003560e01c8063a55fc1651161005b578063a55fc165146100d8578063c334189b146100f6578063c6620db31461012d578063dcb263501461015d5761007d565b80632666af28146100825780635a5539de1461009e578063874b821c146100bc575b600080fd5b61009c60048036038101906100979190610e2d565b61017b565b005b6100a6610306565b6040516100b39190611210565b60405180910390f35b6100d660048036038101906100d19190610e04565b61072b565b005b6100e0610938565b6040516100ed9190611254565b60405180910390f35b610110600480360381019061010b9190610e04565b610945565b604051610124989796959493929190611176565b60405180910390f35b61014760048036038101906101429190610e04565b610bcd565b6040516101549190611254565b60405180910390f35b610165610bf1565b6040516101729190611232565b60405180910390f35b6040518061010001604052803373ffffffffffffffffffffffffffffffffffffffff168152602001428152602001600054815260200186815260200185815260200184815260200183815260200182815250600160008054815260200190815260200160002060008201518160000160006101000a81548173ffffffffffffffffffffffffffffffffffffffff021916908373ffffffffffffffffffffffffffffffffffffffff1602179055506020820151816001015560408201518160020155606082015181600301556080820151816004019080519060200190610262929190610c49565b5060a082015181600501908051906020019061027f929190610c49565b5060c082015181600601908051906020019061029c929190610c49565b5060e08201518160070190805190602001906102b9929190610c49565b50905050600260005490806001815401808255809150506001900390600052602060002001600090919091909150556000808154809291906102fa90611463565b91905055505050505050565b6060600060028054905067ffffffffffffffff81111561034f577f4e487b7100000000000000000000000000000000000000000000000000000000600052604160045260246000fd5b60405190808252806020026020018201604052801561038857816020015b610375610ccf565b81526020019060019003908161036d5790505b50905060005b6002805490508163ffffffff161015610723576001600060028363ffffffff16815481106103e5577f4e487b7100000000000000000000000000000000000000000000000000000000600052603260045260246000fd5b90600052602060002001548152602001908152602001600020604051806101000160405290816000820160009054906101000a900473ffffffffffffffffffffffffffffffffffffffff1673ffffffffffffffffffffffffffffffffffffffff1673ffffffffffffffffffffffffffffffffffffffff16815260200160018201548152602001600282015481526020016003820154815260200160048201805461048e90611431565b80601f01602080910402602001604051908101604052809291908181526020018280546104ba90611431565b80156105075780601f106104dc57610100808354040283529160200191610507565b820191906000526020600020905b8154815290600101906020018083116104ea57829003601f168201915b5050505050815260200160058201805461052090611431565b80601f016020809104026020016040519081016040528092919081815260200182805461054c90611431565b80156105995780601f1061056e57610100808354040283529160200191610599565b820191906000526020600020905b81548152906001019060200180831161057c57829003601f168201915b505050505081526020016006820180546105b290611431565b80601f01602080910402602001604051908101604052809291908181526020018280546105de90611431565b801561062b5780601f106106005761010080835404028352916020019161062b565b820191906000526020600020905b81548152906001019060200180831161060e57829003601f168201915b5050505050815260200160078201805461064490611431565b80601f016020809104026020016040519081016040528092919081815260200182805461067090611431565b80156106bd5780601f10610692576101008083540402835291602001916106bd565b820191906000526020600020905b8154815290600101906020018083116106a057829003601f168201915b505050505081525050828263ffffffff1681518110610705577f4e487b7100000000000000000000000000000000000000000000000000000000600052603260045260246000fd5b6020026020010181905250808061071b906114ac565b91505061038e565b508091505090565b60016000828152602001908152602001600020600080820160006101000a81549073ffffffffffffffffffffffffffffffffffffffff021916905560018201600090556002820160009055600382016000905560048201600061078e9190610d2a565b60058201600061079e9190610d2a565b6006820160006107ae9190610d2a565b6007820160006107be9190610d2a565b505060005b6002805490508163ffffffff161015610933578160028263ffffffff1681548110610817577f4e487b7100000000000000000000000000000000000000000000000000000000600052603260045260246000fd5b90600052602060002001541415610920576002600160028054905061083c919061136f565b81548110610873577f4e487b7100000000000000000000000000000000000000000000000000000000600052603260045260246000fd5b906000526020600020015460028263ffffffff16815481106108be577f4e487b7100000000000000000000000000000000000000000000000000000000600052603260045260246000fd5b90600052602060002001819055506002805480610904577f4e487b7100000000000000000000000000000000000000000000000000000000600052603160045260246000fd5b6001900381819060005260206000200160009055905550610935565b808061092b906114ac565b9150506107c3565b505b50565b6000600280549050905090565b60016020528060005260406000206000915090508060000160009054906101000a900473ffffffffffffffffffffffffffffffffffffffff16908060010154908060020154908060030154908060040180546109a090611431565b80601f01602080910402602001604051908101604052809291908181526020018280546109cc90611431565b8015610a195780601f106109ee57610100808354040283529160200191610a19565b820191906000526020600020905b8154815290600101906020018083116109fc57829003601f168201915b505050505090806005018054610a2e90611431565b80601f0160208091040260200160405190810160405280929190818152602001828054610a5a90611431565b8015610aa75780601f10610a7c57610100808354040283529160200191610aa7565b820191906000526020600020905b815481529060010190602001808311610a8a57829003601f168201915b505050505090806006018054610abc90611431565b80601f0160208091040260200160405190810160405280929190818152602001828054610ae890611431565b8015610b355780601f10610b0a57610100808354040283529160200191610b35565b820191906000526020600020905b815481529060010190602001808311610b1857829003601f168201915b505050505090806007018054610b4a90611431565b80601f0160208091040260200160405190810160405280929190818152602001828054610b7690611431565b8015610bc35780601f10610b9857610100808354040283529160200191610bc3565b820191906000526020600020905b815481529060010190602001808311610ba657829003601f168201915b5050505050905088565b60028181548110610bdd57600080fd5b906000526020600020016000915090505481565b60606002805480602002602001604051908101604052809291908181526020018280548015610c3f57602002820191906000526020600020905b815481526020019060010190808311610c2b575b5050505050905090565b828054610c5590611431565b90600052602060002090601f016020900481019282610c775760008555610cbe565b82601f10610c9057805160ff1916838001178555610cbe565b82800160010185558215610cbe579182015b82811115610cbd578251825591602001919060010190610ca2565b5b509050610ccb9190610d6a565b5090565b604051806101000160405280600073ffffffffffffffffffffffffffffffffffffffff168152602001600081526020016000815260200160008152602001606081526020016060815260200160608152602001606081525090565b508054610d3690611431565b6000825580601f10610d485750610d67565b601f016020900490600052602060002090810190610d669190610d6a565b5b50565b5b80821115610d83576000816000905550600101610d6b565b5090565b6000610d9a610d95846112a0565b61126f565b905082815260208101848484011115610db257600080fd5b610dbd8482856113ef565b509392505050565b600082601f830112610dd657600080fd5b8135610de6848260208601610d87565b91505092915050565b600081359050610dfe81611577565b92915050565b600060208284031215610e1657600080fd5b6000610e2484828501610def565b91505092915050565b600080600080600060a08688031215610e4557600080fd5b6000610e5388828901610def565b955050602086013567ffffffffffffffff811115610e7057600080fd5b610e7c88828901610dc5565b945050604086013567ffffffffffffffff811115610e9957600080fd5b610ea588828901610dc5565b935050606086013567ffffffffffffffff811115610ec257600080fd5b610ece88828901610dc5565b925050608086013567ffffffffffffffff811115610eeb57600080fd5b610ef788828901610dc5565b9150509295509295909350565b6000610f108383611093565b905092915050565b6000610f248383611158565b60208301905092915050565b610f39816113a3565b82525050565b610f48816113a3565b82525050565b6000610f59826112f0565b610f63818561132b565b935083602082028501610f75856112d0565b8060005b85811015610fb15784840389528151610f928582610f04565b9450610f9d83611311565b925060208a01995050600181019050610f79565b50829750879550505050505092915050565b6000610fce826112fb565b610fd8818561133c565b9350610fe3836112e0565b8060005b83811015611014578151610ffb8882610f18565b97506110068361131e565b925050600181019050610fe7565b5085935050505092915050565b600061102c82611306565b611036818561134d565b93506110468185602086016113fe565b61104f81611566565b840191505092915050565b600061106582611306565b61106f818561135e565b935061107f8185602086016113fe565b61108881611566565b840191505092915050565b6000610100830160008301516110ac6000860182610f30565b5060208301516110bf6020860182611158565b5060408301516110d26040860182611158565b5060608301516110e56060860182611158565b50608083015184820360808601526110fd8282611021565b91505060a083015184820360a08601526111178282611021565b91505060c083015184820360c08601526111318282611021565b91505060e083015184820360e086015261114b8282611021565b9150508091505092915050565b611161816113d5565b82525050565b611170816113d5565b82525050565b60006101008201905061118c600083018b610f3f565b611199602083018a611167565b6111a66040830189611167565b6111b36060830188611167565b81810360808301526111c5818761105a565b905081810360a08301526111d9818661105a565b905081810360c08301526111ed818561105a565b905081810360e0830152611201818461105a565b90509998505050505050505050565b6000602082019050818103600083015261122a8184610f4e565b905092915050565b6000602082019050818103600083015261124c8184610fc3565b905092915050565b60006020820190506112696000830184611167565b92915050565b6000604051905081810181811067ffffffffffffffff8211171561129657611295611537565b5b8060405250919050565b600067ffffffffffffffff8211156112bb576112ba611537565b5b601f19601f8301169050602081019050919050565b6000819050602082019050919050565b6000819050602082019050919050565b600081519050919050565b600081519050919050565b600081519050919050565b6000602082019050919050565b6000602082019050919050565b600082825260208201905092915050565b600082825260208201905092915050565b600082825260208201905092915050565b600082825260208201905092915050565b600061137a826113d5565b9150611385836113d5565b925082821015611398576113976114d9565b5b828203905092915050565b60006113ae826113b5565b9050919050565b600073ffffffffffffffffffffffffffffffffffffffff82169050919050565b6000819050919050565b600063ffffffff82169050919050565b82818337600083830152505050565b60005b8381101561141c578082015181840152602081019050611401565b8381111561142b576000848401525b50505050565b6000600282049050600182168061144957607f821691505b6020821081141561145d5761145c611508565b5b50919050565b600061146e826113d5565b91507fffffffffffffffffffffffffffffffffffffffffffffffffffffffffffffffff8214156114a1576114a06114d9565b5b600182019050919050565b60006114b7826113df565b915063ffffffff8214156114ce576114cd6114d9565b5b600182019050919050565b7f4e487b7100000000000000000000000000000000000000000000000000000000600052601160045260246000fd5b7f4e487b7100000000000000000000000000000000000000000000000000000000600052602260045260246000fd5b7f4e487b7100000000000000000000000000000000000000000000000000000000600052604160045260246000fd5b6000601f19601f8301169050919050565b611580816113d5565b811461158b57600080fd5b5056fea26469706673582212204df1a027bd67ad00e33ecc2587e51292f3d06a00567dbdda910e9ee1e91e530764736f6c63430008000033",
  "linkReferences": {},
  "deployedLinkReferences": {}
}