{
  "_format": "hh-sol-artifact-1",
  "contractName": "Deals",
  "sourceName": "contracts/Deals.sol",
  "abi": [
    {
      "anonymous": false,
      "inputs": [
        {
          "indexed": false,
          "internalType": "address",
          "name": "from",
          "type": "address"
        },
        {
          "indexed": false,
          "internalType": "uint256",
          "name": "timestamp",
          "type": "uint256"
        },
        {
          "indexed": false,
          "internalType": "uint256",
          "name": "price",
          "type": "uint256"
        },
        {
          "indexed": false,
          "internalType": "string",
          "name": "email",
          "type": "string"
        },
        {
          "indexed": false,
          "internalType": "string",
          "name": "item",
          "type": "string"
        },
        {
          "indexed": false,
          "internalType": "string",
          "name": "description",
          "type": "string"
        },
        {
          "indexed": false,
          "internalType": "string",
          "name": "imageUrl",
          "type": "string"
        }
      ],
      "name": "DealEvent",
      "type": "event"
    },
    {
      "inputs": [],
      "name": "getDeals",
      "outputs": [
        {
          "components": [
            {
              "internalType": "address",
              "name": "from",
              "type": "address"
            },
            {
              "internalType": "uint256",
              "name": "timestamp",
              "type": "uint256"
            },
            {
              "internalType": "uint256",
              "name": "price",
              "type": "uint256"
            },
            {
              "internalType": "string",
              "name": "email",
              "type": "string"
            },
            {
              "internalType": "string",
              "name": "item",
              "type": "string"
            },
            {
              "internalType": "string",
              "name": "description",
              "type": "string"
            },
            {
              "internalType": "string",
              "name": "imageUrl",
              "type": "string"
            }
          ],
          "internalType": "struct Deals.DealStruct[]",
          "name": "",
          "type": "tuple[]"
        }
      ],
      "stateMutability": "view",
      "type": "function"
    },
    {
      "inputs": [],
      "name": "getNumDeals",
      "outputs": [
        {
          "internalType": "uint256",
          "name": "",
          "type": "uint256"
        }
      ],
      "stateMutability": "view",
      "type": "function"
    },
    {
      "inputs": [
        {
          "internalType": "uint256",
          "name": "price",
          "type": "uint256"
        },
        {
          "internalType": "string",
          "name": "email",
          "type": "string"
        },
        {
          "internalType": "string",
          "name": "item",
          "type": "string"
        },
        {
          "internalType": "string",
          "name": "description",
          "type": "string"
        },
        {
          "internalType": "string",
          "name": "imageUrl",
          "type": "string"
        }
      ],
      "name": "postDeal",
      "outputs": [],
      "stateMutability": "nonpayable",
      "type": "function"
    }
  ],
  "bytecode": "0x60806040526000805534801561001457600080fd5b50610cb0806100246000396000f3fe608060405234801561001057600080fd5b50600436106100415760003560e01c80632666af28146100465780635a5539de14610062578063a55fc16514610080575b600080fd5b610060600480360381019061005b919061067e565b61009e565b005b61006a610244565b60405161007791906109c8565b60405180910390f35b610088610555565b60405161009591906109ea565b60405180910390f35b60016040518060e001604052803373ffffffffffffffffffffffffffffffffffffffff16815260200142815260200187815260200186815260200185815260200184815260200183815250908060018154018082558091505060019003906000526020600020906007020160009091909190915060008201518160000160006101000a81548173ffffffffffffffffffffffffffffffffffffffff021916908373ffffffffffffffffffffffffffffffffffffffff1602179055506020820151816001015560408201518160020155606082015181600301908051906020019061018992919061055e565b5060808201518160040190805190602001906101a692919061055e565b5060a08201518160050190805190602001906101c392919061055e565b5060c08201518160060190805190602001906101e092919061055e565b5050506000808154809291906101f590610b7c565b91905055507f390564f2b392c7040428cf5e11384ae9a71e3c55995f6c99c3dc499819de039733428787878787604051610235979695949392919061093d565b60405180910390a15050505050565b60606001805480602002602001604051908101604052809291908181526020016000905b8282101561054c57838290600052602060002090600702016040518060e00160405290816000820160009054906101000a900473ffffffffffffffffffffffffffffffffffffffff1673ffffffffffffffffffffffffffffffffffffffff1673ffffffffffffffffffffffffffffffffffffffff168152602001600182015481526020016002820154815260200160038201805461030590610b4a565b80601f016020809104026020016040519081016040528092919081815260200182805461033190610b4a565b801561037e5780601f106103535761010080835404028352916020019161037e565b820191906000526020600020905b81548152906001019060200180831161036157829003601f168201915b5050505050815260200160048201805461039790610b4a565b80601f01602080910402602001604051908101604052809291908181526020018280546103c390610b4a565b80156104105780601f106103e557610100808354040283529160200191610410565b820191906000526020600020905b8154815290600101906020018083116103f357829003601f168201915b5050505050815260200160058201805461042990610b4a565b80601f016020809104026020016040519081016040528092919081815260200182805461045590610b4a565b80156104a25780601f10610477576101008083540402835291602001916104a2565b820191906000526020600020905b81548152906001019060200180831161048557829003601f168201915b505050505081526020016006820180546104bb90610b4a565b80601f01602080910402602001604051908101604052809291908181526020018280546104e790610b4a565b80156105345780601f1061050957610100808354040283529160200191610534565b820191906000526020600020905b81548152906001019060200180831161051757829003601f168201915b50505050508152505081526020019060010190610268565b50505050905090565b60008054905090565b82805461056a90610b4a565b90600052602060002090601f01602090048101928261058c57600085556105d3565b82601f106105a557805160ff19168380011785556105d3565b828001600101855582156105d3579182015b828111156105d25782518255916020019190600101906105b7565b5b5090506105e091906105e4565b5090565b5b808211156105fd5760008160009055506001016105e5565b5090565b600061061461060f84610a36565b610a05565b90508281526020810184848401111561062c57600080fd5b610637848285610b08565b509392505050565b600082601f83011261065057600080fd5b8135610660848260208601610601565b91505092915050565b60008135905061067881610c63565b92915050565b600080600080600060a0868803121561069657600080fd5b60006106a488828901610669565b955050602086013567ffffffffffffffff8111156106c157600080fd5b6106cd8882890161063f565b945050604086013567ffffffffffffffff8111156106ea57600080fd5b6106f68882890161063f565b935050606086013567ffffffffffffffff81111561071357600080fd5b61071f8882890161063f565b925050608086013567ffffffffffffffff81111561073c57600080fd5b6107488882890161063f565b9150509295509295909350565b6000610761838361086e565b905092915050565b61077281610acc565b82525050565b61078181610acc565b82525050565b600061079282610a76565b61079c8185610a99565b9350836020820285016107ae85610a66565b8060005b858110156107ea57848403895281516107cb8582610755565b94506107d683610a8c565b925060208a019950506001810190506107b2565b50829750879550505050505092915050565b600061080782610a81565b6108118185610aaa565b9350610821818560208601610b17565b61082a81610c52565b840191505092915050565b600061084082610a81565b61084a8185610abb565b935061085a818560208601610b17565b61086381610c52565b840191505092915050565b600060e0830160008301516108866000860182610769565b506020830151610899602086018261091f565b5060408301516108ac604086018261091f565b50606083015184820360608601526108c482826107fc565b915050608083015184820360808601526108de82826107fc565b91505060a083015184820360a08601526108f882826107fc565b91505060c083015184820360c086015261091282826107fc565b9150508091505092915050565b61092881610afe565b82525050565b61093781610afe565b82525050565b600060e082019050610952600083018a610778565b61095f602083018961092e565b61096c604083018861092e565b818103606083015261097e8187610835565b905081810360808301526109928186610835565b905081810360a08301526109a68185610835565b905081810360c08301526109ba8184610835565b905098975050505050505050565b600060208201905081810360008301526109e28184610787565b905092915050565b60006020820190506109ff600083018461092e565b92915050565b6000604051905081810181811067ffffffffffffffff82111715610a2c57610a2b610c23565b5b8060405250919050565b600067ffffffffffffffff821115610a5157610a50610c23565b5b601f19601f8301169050602081019050919050565b6000819050602082019050919050565b600081519050919050565b600081519050919050565b6000602082019050919050565b600082825260208201905092915050565b600082825260208201905092915050565b600082825260208201905092915050565b6000610ad782610ade565b9050919050565b600073ffffffffffffffffffffffffffffffffffffffff82169050919050565b6000819050919050565b82818337600083830152505050565b60005b83811015610b35578082015181840152602081019050610b1a565b83811115610b44576000848401525b50505050565b60006002820490506001821680610b6257607f821691505b60208210811415610b7657610b75610bf4565b5b50919050565b6000610b8782610afe565b91507fffffffffffffffffffffffffffffffffffffffffffffffffffffffffffffffff821415610bba57610bb9610bc5565b5b600182019050919050565b7f4e487b7100000000000000000000000000000000000000000000000000000000600052601160045260246000fd5b7f4e487b7100000000000000000000000000000000000000000000000000000000600052602260045260246000fd5b7f4e487b7100000000000000000000000000000000000000000000000000000000600052604160045260246000fd5b6000601f19601f8301169050919050565b610c6c81610afe565b8114610c7757600080fd5b5056fea2646970667358221220c17918647a5b8969649af0289abad993c441c210074ae7ebd1dad4aa51d6741364736f6c63430008000033",
  "linkReferences": {},
  "deployedLinkReferences": {}
}